{
  "transactions": [
    {
      "hash": "0x0889144460b34c29fad58386968186b96eb37153658120ae50299aef02613fe6",
      "transactionType": "CALL",
      "contractName": null,
      "contractAddress": "0xeC0b52dA681658a2627cC89B0e20bC74f424C2bE",
      "function": "allowAddress(address)",
      "arguments": [
        "0x53A285371178c07b8929C11b4540aa48ACbcCFD6"
      ],
      "transaction": {
        "type": "0x02",
        "from": "0x5bb7dd6a6eb4a440d6c70e1165243190295e290b",
        "to": "0xec0b52da681658a2627cc89b0e20bc74f424c2be",
        "gas": "0x1232f",
        "value": "0x0",
        "data": "0x08af4d8800000000000000000000000053a285371178c07b8929c11b4540aa48acbccfd6",
        "nonce": "0x101",
        "accessList": []
      },
      "additionalContracts": [],
      "isFixedGasLimit": false
    },
    {
      "hash": "0xf6fe905f1aaa0661a4b67da19d008b57478c44fb8793b7ad82b3152b401e6333",
      "transactionType": "CALL",
      "contractName": null,
      "contractAddress": "0xeC0b52dA681658a2627cC89B0e20bC74f424C2bE",
      "function": "allowAddress(address)",
      "arguments": [
        "0xB999DDAd0d3016853Bd9382DE592113833962b84"
      ],
      "transaction": {
        "type": "0x02",
        "from": "0x5bb7dd6a6eb4a440d6c70e1165243190295e290b",
        "to": "0xec0b52da681658a2627cc89b0e20bc74f424c2be",
        "gas": "0x1232f",
        "value": "0x0",
        "data": "0x08af4d88000000000000000000000000b999ddad0d3016853bd9382de592113833962b84",
        "nonce": "0x102",
        "accessList": []
      },
      "additionalContracts": [],
      "isFixedGasLimit": false
    },
    {
      "hash": "0xd15afc4299ec7808bd1032de3f1c3ba778200e9023a86d0799d8b0cce0d7dcab",
      "transactionType": "CALL",
      "contractName": null,
      "contractAddress": "0xeC0b52dA681658a2627cC89B0e20bC74f424C2bE",
      "function": "allowAddress(address)",
      "arguments": [
        "0x6eAC7E54a00021ec87a836b27ff3005976d8176D"
      ],
      "transaction": {
        "type": "0x02",
        "from": "0x5bb7dd6a6eb4a440d6c70e1165243190295e290b",
        "to": "0xec0b52da681658a2627cc89b0e20bc74f424c2be",
        "gas": "0x1230c",
        "value": "0x0",
        "data": "0x08af4d880000000000000000000000006eac7e54a00021ec87a836b27ff3005976d8176d",
        "nonce": "0x103",
        "accessList": []
      },
      "additionalContracts": [],
      "isFixedGasLimit": false
    },
    {
      "hash": "0xb63a35b70cc44befb49fe30d2a96dc35bd0f696a97f38749abe26c8a6a708052",
      "transactionType": "CALL",
      "contractName": null,
      "contractAddress": "0xeC0b52dA681658a2627cC89B0e20bC74f424C2bE",
      "function": "allowAddress(address)",
      "arguments": [
        "0x1d25dc28ECd93cDE0D7CF6f695d4Ab8F3dcbbe2F"
      ],
      "transaction": {
        "type": "0x02",
        "from": "0x5bb7dd6a6eb4a440d6c70e1165243190295e290b",
        "to": "0xec0b52da681658a2627cc89b0e20bc74f424c2be",
        "gas": "0x1232f",
        "value": "0x0",
        "data": "0x08af4d880000000000000000000000001d25dc28ecd93cde0d7cf6f695d4ab8f3dcbbe2f",
        "nonce": "0x104",
        "accessList": []
      },
      "additionalContracts": [],
      "isFixedGasLimit": false
    },
    {
      "hash": "0xbc6bc9cc5deadda43cb7977a79ef80be4129edafacd01823a87e0912cd859f22",
      "transactionType": "CALL",
      "contractName": null,
      "contractAddress": "0xeC0b52dA681658a2627cC89B0e20bC74f424C2bE",
      "function": "allowAddress(address)",
      "arguments": [
        "0x0022294cb8ADe131beAC413A154f5ae2634f499d"
      ],
      "transaction": {
        "type": "0x02",
        "from": "0x5bb7dd6a6eb4a440d6c70e1165243190295e290b",
        "to": "0xec0b52da681658a2627cc89b0e20bc74f424c2be",
        "gas": "0x112f0",
        "value": "0x0",
        "data": "0x08af4d880000000000000000000000000022294cb8ade131beac413a154f5ae2634f499d",
        "nonce": "0x105",
        "accessList": []
      },
      "additionalContracts": [],
      "isFixedGasLimit": false
    }
  ],
  "receipts": [
    {
      "transactionHash": "0x0889144460b34c29fad58386968186b96eb37153658120ae50299aef02613fe6",
      "transactionIndex": "0x0",
      "blockHash": "0xfff3bea38c67b8fcc89f5dadc0b69d7adc2d2c646ef377e8c86dfecc4295e91e",
      "blockNumber": "0x76da63",
      "from": "0x5bb7dd6a6eb4a440d6C70e1165243190295e290B",
      "to": "0xeC0b52dA681658a2627cC89B0e20bC74f424C2bE",
      "cumulativeGasUsed": "0xc71a",
      "gasUsed": "0xc71a",
      "contractAddress": null,
      "logs": [
        {
          "address": "0x0000000000000000000000000000000000001010",
          "topics": [
            "0x4dfe1bbbcf077ddc3e01291eea2d5c70c2b422b415d95645b9adcfd678cb1d63",
            "0x0000000000000000000000000000000000000000000000000000000000001010",
            "0x0000000000000000000000005bb7dd6a6eb4a440d6c70e1165243190295e290b",
            "0x000000000000000000000000033aaded92ebfec6c818624f28a8e4b3c571ab6f"
          ],
          "data": "0x00000000000000000000000000000000000000000000000000008b12223b8c000000000000000000000000000000000000000000000000009287f9e422676a8700000000000000000000000000000000000000000000001ef78bbd65388756df00000000000000000000000000000000000000000000000092876ed2002bde8700000000000000000000000000000000000000000000001ef78c48775ac2e2df",
          "blockHash": "0xfff3bea38c67b8fcc89f5dadc0b69d7adc2d2c646ef377e8c86dfecc4295e91e",
          "blockNumber": "0x76da63",
          "transactionHash": "0x0889144460b34c29fad58386968186b96eb37153658120ae50299aef02613fe6",
          "transactionIndex": "0x0",
          "logIndex": "0x0",
          "removed": false
        }
      ],
      "status": "0x1",
      "logsBloom": "0x00000000000010000000000000000000000000000000000000000000000000000000000000000000000800000000000000008000000000000000000000000000000000000000000000000000000000800000000000000000000100000000000000080000000000000000000000000000000000000000000080000000000000000000010000000000000000000000000000000000000000000000000000000000200000000000000000000000000000000000000000000000000000000000004000000000000000000001000000000000000000000004000000500000000000000000000000000000000000000000000000000000000000000000000000100000",
      "type": "0x2",
      "effectiveGasPrice": "0xb2d05e0f"
    },
    {
      "transactionHash": "0xf6fe905f1aaa0661a4b67da19d008b57478c44fb8793b7ad82b3152b401e6333",
      "transactionIndex": "0x1",
      "blockHash": "0xfff3bea38c67b8fcc89f5dadc0b69d7adc2d2c646ef377e8c86dfecc4295e91e",
      "blockNumber": "0x76da63",
      "from": "0x5bb7dd6a6eb4a440d6C70e1165243190295e290B",
      "to": "0xeC0b52dA681658a2627cC89B0e20bC74f424C2bE",
      "cumulativeGasUsed": "0x18e34",
      "gasUsed": "0xc71a",
      "contractAddress": null,
      "logs": [
        {
          "address": "0x0000000000000000000000000000000000001010",
          "topics": [
            "0x4dfe1bbbcf077ddc3e01291eea2d5c70c2b422b415d95645b9adcfd678cb1d63",
            "0x0000000000000000000000000000000000000000000000000000000000001010",
            "0x0000000000000000000000005bb7dd6a6eb4a440d6c70e1165243190295e290b",
            "0x000000000000000000000000033aaded92ebfec6c818624f28a8e4b3c571ab6f"
          ],
          "data": "0x00000000000000000000000000000000000000000000000000008b12223b8c0000000000000000000000000000000000000000000000000092876ed20020340100000000000000000000000000000000000000000000001ef78c48775ac2e2df0000000000000000000000000000000000000000000000009286e3bfdde4a80100000000000000000000000000000000000000000000001ef78cd3897cfe6edf",
          "blockHash": "0xfff3bea38c67b8fcc89f5dadc0b69d7adc2d2c646ef377e8c86dfecc4295e91e",
          "blockNumber": "0x76da63",
          "transactionHash": "0xf6fe905f1aaa0661a4b67da19d008b57478c44fb8793b7ad82b3152b401e6333",
          "transactionIndex": "0x1",
          "logIndex": "0x1",
          "removed": false
        }
      ],
      "status": "0x1",
      "logsBloom": "0x00000000000010000000000000000000000000000000000000000000000000000000000000000000000800000000000000008000000000000000000000000000000000000000000000000000000000800000000000000000000100000000000000080000000000000000000000000000000000000000000080000000000000000000010000000000000000000000000000000000000000000000000000000000200000000000000000000000000000000000000000000000000000000000004000000000000000000001000000000000000000000004000000500000000000000000000000000000000000000000000000000000000000000000000000100000",
      "type": "0x2",
      "effectiveGasPrice": "0xb2d05e0f"
    },
    {
      "transactionHash": "0xd15afc4299ec7808bd1032de3f1c3ba778200e9023a86d0799d8b0cce0d7dcab",
      "transactionIndex": "0x2",
      "blockHash": "0xfff3bea38c67b8fcc89f5dadc0b69d7adc2d2c646ef377e8c86dfecc4295e91e",
      "blockNumber": "0x76da63",
      "from": "0x5bb7dd6a6eb4a440d6C70e1165243190295e290B",
      "to": "0xeC0b52dA681658a2627cC89B0e20bC74f424C2bE",
      "cumulativeGasUsed": "0x25536",
      "gasUsed": "0xc702",
      "contractAddress": null,
      "logs": [
        {
          "address": "0x0000000000000000000000000000000000001010",
          "topics": [
            "0x4dfe1bbbcf077ddc3e01291eea2d5c70c2b422b415d95645b9adcfd678cb1d63",
            "0x0000000000000000000000000000000000000000000000000000000000001010",
            "0x0000000000000000000000005bb7dd6a6eb4a440d6c70e1165243190295e290b",
            "0x000000000000000000000000033aaded92ebfec6c818624f28a8e4b3c571ab6f"
          ],
          "data": "0x00000000000000000000000000000000000000000000000000008b015eb2bc000000000000000000000000000000000000000000000000009286e3bfddd8fd7b00000000000000000000000000000000000000000000001ef78cd3897cfe6edf000000000000000000000000000000000000000000000000928658be7f26417b00000000000000000000000000000000000000000000001ef78d5e8adbb12adf",
          "blockHash": "0xfff3bea38c67b8fcc89f5dadc0b69d7adc2d2c646ef377e8c86dfecc4295e91e",
          "blockNumber": "0x76da63",
          "transactionHash": "0xd15afc4299ec7808bd1032de3f1c3ba778200e9023a86d0799d8b0cce0d7dcab",
          "transactionIndex": "0x2",
          "logIndex": "0x2",
          "removed": false
        }
      ],
      "status": "0x1",
      "logsBloom": "0x00000000000010000000000000000000000000000000000000000000000000000000000000000000000800000000000000008000000000000000000000000000000000000000000000000000000000800000000000000000000100000000000000080000000000000000000000000000000000000000000080000000000000000000010000000000000000000000000000000000000000000000000000000000200000000000000000000000000000000000000000000000000000000000004000000000000000000001000000000000000000000004000000500000000000000000000000000000000000000000000000000000000000000000000000100000",
      "type": "0x2",
      "effectiveGasPrice": "0xb2d05e0f"
    },
    {
      "transactionHash": "0xb63a35b70cc44befb49fe30d2a96dc35bd0f696a97f38749abe26c8a6a708052",
      "transactionIndex": "0x3",
      "blockHash": "0xfff3bea38c67b8fcc89f5dadc0b69d7adc2d2c646ef377e8c86dfecc4295e91e",
      "blockNumber": "0x76da63",
      "from": "0x5bb7dd6a6eb4a440d6C70e1165243190295e290B",
      "to": "0xeC0b52dA681658a2627cC89B0e20bC74f424C2bE",
      "cumulativeGasUsed": "0x31c50",
      "gasUsed": "0xc71a",
      "contractAddress": null,
      "logs": [
        {
          "address": "0x0000000000000000000000000000000000001010",
          "topics": [
            "0x4dfe1bbbcf077ddc3e01291eea2d5c70c2b422b415d95645b9adcfd678cb1d63",
            "0x0000000000000000000000000000000000000000000000000000000000001010",
            "0x0000000000000000000000005bb7dd6a6eb4a440d6c70e1165243190295e290b",
            "0x000000000000000000000000033aaded92ebfec6c818624f28a8e4b3c571ab6f"
          ],
          "data": "0x00000000000000000000000000000000000000000000000000008b12223b8c00000000000000000000000000000000000000000000000000928658be7f1a985d00000000000000000000000000000000000000000000001ef78d5e8adbb12adf0000000000000000000000000000000000000000000000009285cdac5cdf0c5d00000000000000000000000000000000000000000000001ef78de99cfdecb6df",
          "blockHash": "0xfff3bea38c67b8fcc89f5dadc0b69d7adc2d2c646ef377e8c86dfecc4295e91e",
          "blockNumber": "0x76da63",
          "transactionHash": "0xb63a35b70cc44befb49fe30d2a96dc35bd0f696a97f38749abe26c8a6a708052",
          "transactionIndex": "0x3",
          "logIndex": "0x3",
          "removed": false
        }
      ],
      "status": "0x1",
      "logsBloom": "0x00000000000010000000000000000000000000000000000000000000000000000000000000000000000800000000000000008000000000000000000000000000000000000000000000000000000000800000000000000000000100000000000000080000000000000000000000000000000000000000000080000000000000000000010000000000000000000000000000000000000000000000000000000000200000000000000000000000000000000000000000000000000000000000004000000000000000000001000000000000000000000004000000500000000000000000000000000000000000000000000000000000000000000000000000100000",
      "type": "0x2",
      "effectiveGasPrice": "0xb2d05e0f"
    },
    {
      "transactionHash": "0xbc6bc9cc5deadda43cb7977a79ef80be4129edafacd01823a87e0912cd859f22",
      "transactionIndex": "0x4",
      "blockHash": "0xfff3bea38c67b8fcc89f5dadc0b69d7adc2d2c646ef377e8c86dfecc4295e91e",
      "blockNumber": "0x76da63",
      "from": "0x5bb7dd6a6eb4a440d6C70e1165243190295e290B",
      "to": "0xeC0b52dA681658a2627cC89B0e20bC74f424C2bE",
      "cumulativeGasUsed": "0x3e35e",
      "gasUsed": "0xc70e",
      "contractAddress": null,
      "logs": [
        {
          "address": "0x0000000000000000000000000000000000001010",
          "topics": [
            "0x4dfe1bbbcf077ddc3e01291eea2d5c70c2b422b415d95645b9adcfd678cb1d63",
            "0x0000000000000000000000000000000000000000000000000000000000001010",
            "0x0000000000000000000000005bb7dd6a6eb4a440d6c70e1165243190295e290b",
            "0x000000000000000000000000033aaded92ebfec6c818624f28a8e4b3c571ab6f"
          ],
          "data": "0x00000000000000000000000000000000000000000000000000008b09c07724000000000000000000000000000000000000000000000000009285cdac5cd361d700000000000000000000000000000000000000000000001ef78de99cfdecb6df000000000000000000000000000000000000000000000000928542a29c5c3dd700000000000000000000000000000000000000000000001ef78e74a6be63dadf",
          "blockHash": "0xfff3bea38c67b8fcc89f5dadc0b69d7adc2d2c646ef377e8c86dfecc4295e91e",
          "blockNumber": "0x76da63",
          "transactionHash": "0xbc6bc9cc5deadda43cb7977a79ef80be4129edafacd01823a87e0912cd859f22",
          "transactionIndex": "0x4",
          "logIndex": "0x4",
          "removed": false
        }
      ],
      "status": "0x1",
      "logsBloom": "0x00000000000010000000000000000000000000000000000000000000000000000000000000000000000800000000000000008000000000000000000000000000000000000000000000000000000000800000000000000000000100000000000000080000000000000000000000000000000000000000000080000000000000000000010000000000000000000000000000000000000000000000000000000000200000000000000000000000000000000000000000000000000000000000004000000000000000000001000000000000000000000004000000500000000000000000000000000000000000000000000000000000000000000000000000100000",
      "type": "0x2",
      "effectiveGasPrice": "0xb2d05e0f"
    }
  ],
  "libraries": [],
  "pending": [],
  "returns": {},
  "timestamp": 1717350726,
  "chain": 80002,
  "commit": "2502665"
}